{
  "contractName": "CharityDonation",
  "abi": [
    {
      "inputs": [],
      "stateMutability": "nonpayable",
      "type": "constructor"
    },
    {
      "anonymous": false,
      "inputs": [
        {
          "indexed": true,
          "internalType": "uint256",
          "name": "projectId",
          "type": "uint256"
        },
        {
          "indexed": true,
          "internalType": "address",
          "name": "donor",
          "type": "address"
        },
        {
          "indexed": false,
          "internalType": "uint256",
          "name": "amount",
          "type": "uint256"
        },
        {
          "indexed": false,
          "internalType": "string",
          "name": "message",
          "type": "string"
        }
      ],
      "name": "DonationReceived",
      "type": "event"
    },
    {
      "anonymous": false,
      "inputs": [
        {
          "indexed": true,
          "internalType": "uint256",
          "name": "projectId",
          "type": "uint256"
        },
        {
          "indexed": false,
          "internalType": "string",
          "name": "description",
          "type": "string"
        },
        {
          "indexed": false,
          "internalType": "uint256",
          "name": "amount",
          "type": "uint256"
        },
        {
          "indexed": false,
          "internalType": "address",
          "name": "recipient",
          "type": "address"
        }
      ],
      "name": "ExpenseRecorded",
      "type": "event"
    },
    {
      "anonymous": false,
      "inputs": [
        {
          "indexed": true,
          "internalType": "uint256",
          "name": "projectId",
          "type": "uint256"
        },
        {
          "indexed": true,
          "internalType": "address",
          "name": "beneficiary",
          "type": "address"
        },
        {
          "indexed": false,
          "internalType": "uint256",
          "name": "amount",
          "type": "uint256"
        }
      ],
      "name": "FundsWithdrawn",
      "type": "event"
    },
    {
      "anonymous": false,
      "inputs": [
        {
          "indexed": true,
          "internalType": "uint256",
          "name": "projectId",
          "type": "uint256"
        },
        {
          "indexed": false,
          "internalType": "string",
          "name": "name",
          "type": "string"
        },
        {
          "indexed": false,
          "internalType": "address",
          "name": "beneficiary",
          "type": "address"
        },
        {
          "indexed": false,
          "internalType": "uint256",
          "name": "goal",
          "type": "uint256"
        }
      ],
      "name": "ProjectCreated",
      "type": "event"
    },
    {
      "anonymous": false,
      "inputs": [
        {
          "indexed": true,
          "internalType": "uint256",
          "name": "projectId",
          "type": "uint256"
        },
        {
          "indexed": false,
          "internalType": "bool",
          "name": "isActive",
          "type": "bool"
        }
      ],
      "name": "ProjectStatusChanged",
      "type": "event"
    },
    {
      "inputs": [
        {
          "internalType": "uint256",
          "name": "",
          "type": "uint256"
        },
        {
          "internalType": "uint256",
          "name": "",
          "type": "uint256"
        }
      ],
      "name": "donations",
      "outputs": [
        {
          "internalType": "address",
          "name": "donor",
          "type": "address"
        },
        {
          "internalType": "uint256",
          "name": "amount",
          "type": "uint256"
        },
        {
          "internalType": "uint256",
          "name": "timestamp",
          "type": "uint256"
        },
        {
          "internalType": "string",
          "name": "message",
          "type": "string"
        }
      ],
      "stateMutability": "view",
      "type": "function",
      "constant": true
    },
    {
      "inputs": [
        {
          "internalType": "uint256",
          "name": "",
          "type": "uint256"
        },
        {
          "internalType": "uint256",
          "name": "",
          "type": "uint256"
        }
      ],
      "name": "expenses",
      "outputs": [
        {
          "internalType": "string",
          "name": "description",
          "type": "string"
        },
        {
          "internalType": "uint256",
          "name": "amount",
          "type": "uint256"
        },
        {
          "internalType": "uint256",
          "name": "timestamp",
          "type": "uint256"
        },
        {
          "internalType": "address",
          "name": "recipient",
          "type": "address"
        }
      ],
      "stateMutability": "view",
      "type": "function",
      "constant": true
    },
    {
      "inputs": [],
      "name": "owner",
      "outputs": [
        {
          "internalType": "address",
          "name": "",
          "type": "address"
        }
      ],
      "stateMutability": "view",
      "type": "function",
      "constant": true
    },
    {
      "inputs": [],
      "name": "projectCount",
      "outputs": [
        {
          "internalType": "uint256",
          "name": "",
          "type": "uint256"
        }
      ],
      "stateMutability": "view",
      "type": "function",
      "constant": true
    },
    {
      "inputs": [
        {
          "internalType": "uint256",
          "name": "",
          "type": "uint256"
        }
      ],
      "name": "projects",
      "outputs": [
        {
          "internalType": "string",
          "name": "name",
          "type": "string"
        },
        {
          "internalType": "string",
          "name": "description",
          "type": "string"
        },
        {
          "internalType": "address payable",
          "name": "beneficiary",
          "type": "address"
        },
        {
          "internalType": "uint256",
          "name": "fundraisingGoal",
          "type": "uint256"
        },
        {
          "internalType": "uint256",
          "name": "totalDonated",
          "type": "uint256"
        },
        {
          "internalType": "bool",
          "name": "isActive",
          "type": "bool"
        },
        {
          "internalType": "uint256",
          "name": "createdAt",
          "type": "uint256"
        }
      ],
      "stateMutability": "view",
      "type": "function",
      "constant": true
    },
    {
      "inputs": [
        {
          "internalType": "uint256",
          "name": "",
          "type": "uint256"
        }
      ],
      "name": "withdrawnAmounts",
      "outputs": [
        {
          "internalType": "uint256",
          "name": "",
          "type": "uint256"
        }
      ],
      "stateMutability": "view",
      "type": "function",
      "constant": true
    },
    {
      "inputs": [
        {
          "internalType": "string",
          "name": "_name",
          "type": "string"
        },
        {
          "internalType": "string",
          "name": "_description",
          "type": "string"
        },
        {
          "internalType": "address payable",
          "name": "_beneficiary",
          "type": "address"
        },
        {
          "internalType": "uint256",
          "name": "_fundraisingGoal",
          "type": "uint256"
        }
      ],
      "name": "createProject",
      "outputs": [],
      "stateMutability": "nonpayable",
      "type": "function"
    },
    {
      "inputs": [
        {
          "internalType": "uint256",
          "name": "_projectId",
          "type": "uint256"
        },
        {
          "internalType": "string",
          "name": "_message",
          "type": "string"
        }
      ],
      "name": "donate",
      "outputs": [],
      "stateMutability": "payable",
      "type": "function",
      "payable": true
    },
    {
      "inputs": [
        {
          "internalType": "uint256",
          "name": "_projectId",
          "type": "uint256"
        },
        {
          "internalType": "uint256",
          "name": "_amount",
          "type": "uint256"
        }
      ],
      "name": "withdrawFunds",
      "outputs": [],
      "stateMutability": "nonpayable",
      "type": "function"
    },
    {
      "inputs": [
        {
          "internalType": "uint256",
          "name": "_projectId",
          "type": "uint256"
        },
        {
          "internalType": "string",
          "name": "_description",
          "type": "string"
        },
        {
          "internalType": "uint256",
          "name": "_amount",
          "type": "uint256"
        },
        {
          "internalType": "address",
          "name": "_recipient",
          "type": "address"
        }
      ],
      "name": "recordExpense",
      "outputs": [],
      "stateMutability": "nonpayable",
      "type": "function"
    },
    {
      "inputs": [
        {
          "internalType": "uint256",
          "name": "_projectId",
          "type": "uint256"
        }
      ],
      "name": "toggleProjectStatus",
      "outputs": [],
      "stateMutability": "nonpayable",
      "type": "function"
    },
    {
      "inputs": [
        {
          "internalType": "uint256",
          "name": "_projectId",
          "type": "uint256"
        }
      ],
      "name": "getDonationCount",
      "outputs": [
        {
          "internalType": "uint256",
          "name": "",
          "type": "uint256"
        }
      ],
      "stateMutability": "view",
      "type": "function",
      "constant": true
    },
    {
      "inputs": [
        {
          "internalType": "uint256",
          "name": "_projectId",
          "type": "uint256"
        }
      ],
      "name": "getExpenseCount",
      "outputs": [
        {
          "internalType": "uint256",
          "name": "",
          "type": "uint256"
        }
      ],
      "stateMutability": "view",
      "type": "function",
      "constant": true
    },
    {
      "inputs": [
        {
          "internalType": "uint256",
          "name": "_projectId",
          "type": "uint256"
        }
      ],
      "name": "getAvailableBalance",
      "outputs": [
        {
          "internalType": "uint256",
          "name": "",
          "type": "uint256"
        }
      ],
      "stateMutability": "view",
      "type": "function",
      "constant": true
    },
    {
      "inputs": [
        {
          "internalType": "uint256",
          "name": "_projectId",
          "type": "uint256"
        }
      ],
      "name": "getWithdrawnAmount",
      "outputs": [
        {
          "internalType": "uint256",
          "name": "",
          "type": "uint256"
        }
      ],
      "stateMutability": "view",
      "type": "function",
      "constant": true
    },
    {
      "inputs": [],
      "name": "getContractBalance",
      "outputs": [
        {
          "internalType": "uint256",
          "name": "",
          "type": "uint256"
        }
      ],
      "stateMutability": "view",
      "type": "function",
      "constant": true
    }
  ],
  "bytecode": "0x608060405234801561001057600080fd5b50600080546001600160a01b03191633178155600555611578806100356000396000f3fe6080604052600436106100f35760003560e01c80638d59d1f11161008a578063c18c187611610059578063c18c1876146102b5578063d511609f146102d5578063d8decffe146102f5578063e52531051461032557600080fd5b80638d59d1f11461022a5780638da5cb5b1461023d578063aabef0db14610275578063bac383391461029557600080fd5b80636eb8b37c116100c65780636eb8b37c146101b55780636f9fb98a146101d557806372a1debe146101e85780638b8a417e1461020a57600080fd5b8063107046bd146100f85780633677e5cc1461013457806336fbad261461016f57806348f7b12e14610185575b600080fd5b34801561010457600080fd5b50610118610113366004610f7a565b610345565b60405161012b9796959493929190610fd9565b60405180910390f35b34801561014057600080fd5b5061016161014f366004610f7a565b60046020526000908152604090205481565b60405190815260200161012b565b34801561017b57600080fd5b5061016160055481565b34801561019157600080fd5b506101a56101a0366004611034565b61049e565b60405161012b9493929190611056565b3480156101c157600080fd5b506101616101d0366004610f7a565b61057a565b3480156101e157600080fd5b5047610161565b3480156101f457600080fd5b50610208610203366004611148565b6105bf565b005b34801561021657600080fd5b50610208610225366004610f7a565b610743565b6102086102383660046111ab565b6107f0565b34801561024957600080fd5b5060005461025d906001600160a01b031681565b6040516001600160a01b03909116815260200161012b565b34801561028157600080fd5b50610161610290366004610f7a565b6109ca565b3480156102a157600080fd5b506102086102b03660046111f2565b610a1b565b3480156102c157600080fd5b506101616102d0366004610f7a565b610b6e565b3480156102e157600080fd5b506101616102f0366004610f7a565b610ba6565b34801561030157600080fd5b50610315610310366004611034565b610bde565b60405161012b9493929190611270565b34801561033157600080fd5b50610208610340366004611034565b610cbe565b600160205260009081526040902080548190610360906112a8565b80601f016020809104026020016040519081016040528092919081815260200182805461038c906112a8565b80156103d95780601f106103ae576101008083540402835291602001916103d9565b820191906000526020600020905b8154815290600101906020018083116103bc57829003601f168201915b5050505050908060010180546103ee906112a8565b80601f016020809104026020016040519081016040528092919081815260200182805461041a906112a8565b80156104675780601f1061043c57610100808354040283529160200191610467565b820191906000526020600020905b81548152906001019060200180831161044a57829003601f168201915b50505050600283015460038401546004850154600586015460069096015494956001600160a01b03909316949193509160ff169087565b600260205281600052604060002081815481106104ba57600080fd5b600091825260209091206004909102018054600182015460028301546003840180546001600160a01b03909416965091945092916104f7906112a8565b80601f0160208091040260200160405190810160405280929190818152602001828054610523906112a8565b80156105705780601f1061054557610100808354040283529160200191610570565b820191906000526020600020905b81548152906001019060200180831161055357829003601f168201915b5050505050905084565b60008160055481106105a75760405162461bcd60e51b815260040161059e906112dc565b60405180910390fd5b60008381526002602052604090205491505b50919050565b8360055481106105e15760405162461bcd60e51b815260040161059e906112dc565b60008581526001602052604090206002015485906001600160a01b031633146106645760405162461bcd60e51b815260206004820152602f60248201527f4f6e6c792070726f6a6563742062656e65666963696172792063616e2063616c60448201526e36103a3434b990333ab731ba34b7b760891b606482015260840161059e565b6000868152600360209081526040808320815160808101835289815280840189905242928101929092526001600160a01b038716606083015280546001810182559084529190922082516004909202019081906106c1908261135b565b50602082015160018201556040808301516002830155606090920151600390910180546001600160a01b0319166001600160a01b039092169190911790555186907f4953ad02d75c71c806db91df62522b28afce83f2a4f7996c0f009b37de66fed7906107339088908890889061141b565b60405180910390a2505050505050565b8060055481106107655760405162461bcd60e51b815260040161059e906112dc565b6000546001600160a01b0316331461078f5760405162461bcd60e51b815260040161059e9061144e565b600082815260016020908152604091829020600501805460ff8082161560ff199092168217909255925192161515825283917f73c9860341fcf3a75820bf92ceafc9c352f5590f6693cd99123378b454372b7d910160405180910390a25050565b8160055481106108125760405162461bcd60e51b815260040161059e906112dc565b600083815260016020526040902060050154839060ff1661086d5760405162461bcd60e51b815260206004820152601560248201527450726f6a656374206973206e6f742061637469766560581b604482015260640161059e565b600034116108cc5760405162461bcd60e51b815260206004820152602660248201527f446f6e6174696f6e20616d6f756e74206d75737420626520677265617465722060448201526507468616e20360d41b606482015260840161059e565b600084815260016020526040812060040180543492906108ed9084906114ae565b9091555050600084815260026020818152604080842081516080810183523381523481850190815242938201938452606082018a815283546001808201865594895295909720825160049096020180546001600160a01b0319166001600160a01b0390961695909517855551918401919091559051928201929092559151909190600382019061097d908261135b565b505050336001600160a01b0316847f3f82cd807839db80f9937063f26a2146e11e161b89613f94f6972cae64ea2e6434866040516109bc9291906114c7565b60405180910390a350505050565b60008160055481106109ee5760405162461bcd60e51b815260040161059e906112dc565b60008381526004602081815260408084205460019092529092200154610a1491906114e8565b9392505050565b6000546001600160a01b03163314610a455760405162461bcd60e51b815260040161059e9061144e565b6005546040805160e08101825286815260208082018790526001600160a01b0386168284015260608201859052600060808301819052600160a084018190524260c08501528582529091529190912081518190610aa2908261135b565b5060208201516001820190610ab7908261135b565b5060408201516002820180546001600160a01b0319166001600160a01b03909216919091179055606082015160038201556080820151600482015560a08201516005808301805460ff19169215159290921790915560c0909201516006909101558054906000610b26836114fb565b9190505550807fa026ee65bff24e0219543a4cec2746ef952b145e2658ac5db36953d7044712a9868585604051610b5f93929190611514565b60405180910390a25050505050565b6000816005548110610b925760405162461bcd60e51b815260040161059e906112dc565b505060009081526003602052604090205490565b6000816005548110610bca5760405162461bcd60e51b815260040161059e906112dc565b505060009081526004602052604090205490565b60036020528160005260406000208181548110610bfa57600080fd5b906000526020600020906004020160009150915050806000018054610c1e906112a8565b80601f0160208091040260200160405190810160405280929190818152602001828054610c4a906112a8565b8015610c975780601f10610c6c57610100808354040283529160200191610c97565b820191906000526020600020905b815481529060010190602001808311610c7a57829003601f168201915b5050505060018301546002840154600390940154929390929091506001600160a01b031684565b816005548110610ce05760405162461bcd60e51b815260040161059e906112dc565b60005483906001600160a01b0316331480610d1457506000818152600160205260409020600201546001600160a01b031633145b610d905760405162461bcd60e51b815260206004820152604160248201527f4f6e6c7920636f6e7472616374206f776e6572206f722070726f6a656374206260448201527f656e65666963696172792063616e2063616c6c20746869732066756e6374696f6064820152603760f91b608482015260a40161059e565b600084815260016020526040902083610dfc5760405162461bcd60e51b815260206004820152602860248201527f5769746864726177616c20616d6f756e74206d75737420626520677265617465604482015267072207468616e20360c41b606482015260840161059e565b47841115610e4c5760405162461bcd60e51b815260206004820152601d60248201527f496e73756666696369656e7420636f6e74726163742062616c616e6365000000604482015260640161059e565b600085815260046020819052604082205490830154610e6b91906114e8565b905080851115610ecc5760405162461bcd60e51b815260206004820152602660248201527f496e73756666696369656e7420617661696c61626c652070726f6a6563742062604482015265616c616e636560d01b606482015260840161059e565b60008681526004602052604081208054879290610eea9084906114ae565b909155505060028201546040516001600160a01b039091169086156108fc029087906000818181858888f19350505050158015610f2b573d6000803e3d6000fd5b5060028201546040518681526001600160a01b039091169087907ff440aec6b52895984d061d622e6edeba6210f7c3e059be920663140c084560d79060200160405180910390a3505050505050565b600060208284031215610f8c57600080fd5b5035919050565b6000815180845260005b81811015610fb957602081850181015186830182015201610f9d565b506000602082860101526020601f19601f83011685010191505092915050565b60e081526000610fec60e083018a610f93565b8281036020840152610ffe818a610f93565b6001600160a01b03989098166040840152505060608101949094526080840192909252151560a083015260c09091015292915050565b6000806040838503121561104757600080fd5b50508035926020909101359150565b60018060a01b03851681528360208201528260408201526080606082015260006110836080830184610f93565b9695505050505050565b634e487b7160e01b600052604160045260246000fd5b600082601f8301126110b457600080fd5b813567ffffffffffffffff808211156110cf576110cf61108d565b604051601f8301601f19908116603f011681019082821181831017156110f7576110f761108d565b8160405283815286602085880101111561111057600080fd5b836020870160208301376000602085830101528094505050505092915050565b6001600160a01b038116811461114557600080fd5b50565b6000806000806080858703121561115e57600080fd5b84359350602085013567ffffffffffffffff81111561117c57600080fd5b611188878288016110a3565b9350506040850135915060608501356111a081611130565b939692955090935050565b600080604083850312156111be57600080fd5b82359150602083013567ffffffffffffffff8111156111dc57600080fd5b6111e8858286016110a3565b9150509250929050565b6000806000806080858703121561120857600080fd5b843567ffffffffffffffff8082111561122057600080fd5b61122c888389016110a3565b9550602087013591508082111561124257600080fd5b5061124f878288016110a3565b935050604085013561126081611130565b9396929550929360600135925050565b6080815260006112836080830187610f93565b60208301959095525060408101929092526001600160a01b0316606090910152919050565b600181811c908216806112bc57607f821691505b6020821081036105b957634e487b7160e01b600052602260045260246000fd5b602080825260169082015275141c9bda9958dd08191bd95cc81b9bdd08195e1a5cdd60521b604082015260600190565b601f82111561135657600081815260208120601f850160051c810160208610156113335750805b601f850160051c820191505b818110156113525782815560010161133f565b5050505b505050565b815167ffffffffffffffff8111156113755761137561108d565b6113898161138384546112a8565b8461130c565b602080601f8311600181146113be57600084156113a65750858301515b600019600386901b1c1916600185901b178555611352565b600085815260208120601f198616915b828110156113ed578886015182559484019460019091019084016113ce565b508582101561140b5787850151600019600388901b60f8161c191681555b5050505050600190811b01905550565b60608152600061142e6060830186610f93565b6020830194909452506001600160a01b0391909116604090910152919050565b6020808252602a908201527f4f6e6c7920636f6e7472616374206f776e65722063616e2063616c6c207468696040820152693990333ab731ba34b7b760b11b606082015260800190565b634e487b7160e01b600052601160045260246000fd5b808201808211156114c1576114c1611498565b92915050565b8281526040602082015260006114e06040830184610f93565b949350505050565b818103818111156114c1576114c1611498565b60006001820161150d5761150d611498565b5060010190565b6060815260006115276060830186610f93565b6001600160a01b03949094166020830152506040015291905056fea264697066735822122098b40d0fedd6ec12337d26b22c3993f2e3fcc488ce6bf02c3af1b8173f70373164736f6c63430008130033",
  "immutableReferences": {},
  "source": "// SPDX-License-Identifier: MIT\npragma solidity ^0.8.0;\n\n/**\n * @title CharityDonation\n * @dev \n */\ncontract CharityDonation {\n    // \n    address public owner;\n    \n    // \n    struct CharityProject {\n        string name;\n        string description;\n        address payable beneficiary;\n        uint256 fundraisingGoal;\n        uint256 totalDonated;\n        bool isActive;\n        uint256 createdAt;\n    }\n    \n    // \n    struct Donation {\n        address donor;\n        uint256 amount;\n        uint256 timestamp;\n        string message;\n    }\n    \n    // \n    struct Expense {\n        string description;\n        uint256 amount;\n        uint256 timestamp;\n        address recipient;\n    }\n    \n    // ID\n    mapping(uint256 => CharityProject) public projects;\n    \n    // ID\n    mapping(uint256 => Donation[]) public donations;\n    \n    // ID\n    mapping(uint256 => Expense[]) public expenses;\n    \n    // ID\n    mapping(uint256 => uint256) public withdrawnAmounts;\n    \n    // \n    uint256 public projectCount;\n    \n    // \n    event ProjectCreated(uint256 indexed projectId, string name, address beneficiary, uint256 goal);\n    event DonationReceived(uint256 indexed projectId, address indexed donor, uint256 amount, string message);\n    event FundsWithdrawn(uint256 indexed projectId, address indexed beneficiary, uint256 amount);\n    event ExpenseRecorded(uint256 indexed projectId, string description, uint256 amount, address recipient);\n    event ProjectStatusChanged(uint256 indexed projectId, bool isActive);\n    \n    // \n    constructor() {\n        owner = msg.sender;\n        projectCount = 0;\n    }\n    \n    // \n    modifier onlyOwner() {\n        require(msg.sender == owner, \"Only contract owner can call this function\");\n        _;\n    }\n    \n    // \n    modifier onlyBeneficiary(uint256 _projectId) {\n        require(msg.sender == projects[_projectId].beneficiary, \"Only project beneficiary can call this function\");\n        _;\n    }\n    \n    // \n    modifier onlyOwnerOrBeneficiary(uint256 _projectId) {\n        require(\n            msg.sender == owner || msg.sender == projects[_projectId].beneficiary, \n            \"Only contract owner or project beneficiary can call this function\"\n        );\n        _;\n    }\n    \n    // \n    modifier projectExists(uint256 _projectId) {\n        require(_projectId < projectCount, \"Project does not exist\");\n        _;\n    }\n    \n    // \n    modifier projectActive(uint256 _projectId) {\n        require(projects[_projectId].isActive, \"Project is not active\");\n        _;\n    }\n    \n    /**\n     * @dev \n     */\n    function createProject(\n        string memory _name,\n        string memory _description,\n        address payable _beneficiary,\n        uint256 _fundraisingGoal\n    ) public onlyOwner {\n        uint256 projectId = projectCount;\n        \n        projects[projectId] = CharityProject({\n            name: _name,\n            description: _description,\n            beneficiary: _beneficiary,\n            fundraisingGoal: _fundraisingGoal,\n            totalDonated: 0,\n            isActive: true,\n            createdAt: block.timestamp\n        });\n        \n        projectCount++;\n        \n        emit ProjectCreated(projectId, _name, _beneficiary, _fundraisingGoal);\n    }\n    \n    /**\n     * @dev \n     */\n    function donate(uint256 _projectId, string memory _message) public payable projectExists(_projectId) projectActive(_projectId) {\n        require(msg.value > 0, \"Donation amount must be greater than 0\");\n        \n        // \n        projects[_projectId].totalDonated += msg.value;\n        \n        // \n        donations[_projectId].push(Donation({\n            donor: msg.sender,\n            amount: msg.value,\n            timestamp: block.timestamp,\n            message: _message\n        }));\n        \n        emit DonationReceived(_projectId, msg.sender, msg.value, _message);\n    }\n    \n    /**\n     * @dev \n     */\n    function withdrawFunds(uint256 _projectId, uint256 _amount) public projectExists(_projectId) onlyOwnerOrBeneficiary(_projectId) {\n        CharityProject storage project = projects[_projectId];\n        \n        require(_amount > 0, \"Withdrawal amount must be greater than 0\");\n        require(_amount <= address(this).balance, \"Insufficient contract balance\");\n        \n        //  - \n        uint256 availableBalance = project.totalDonated - withdrawnAmounts[_projectId];\n        require(_amount <= availableBalance, \"Insufficient available project balance\");\n        \n        // \n        withdrawnAmounts[_projectId] += _amount;\n        \n        // \n        project.beneficiary.transfer(_amount);\n        \n        emit FundsWithdrawn(_projectId, project.beneficiary, _amount);\n    }\n    \n    /**\n     * @dev \n     */\n    function recordExpense(\n        uint256 _projectId,\n        string memory _description,\n        uint256 _amount,\n        address _recipient\n    ) public projectExists(_projectId) onlyBeneficiary(_projectId) {\n        expenses[_projectId].push(Expense({\n            description: _description,\n            amount: _amount,\n            timestamp: block.timestamp,\n            recipient: _recipient\n        }));\n        \n        emit ExpenseRecorded(_projectId, _description, _amount, _recipient);\n    }\n    \n    /**\n     * @dev /\n     */\n    function toggleProjectStatus(uint256 _projectId) public projectExists(_projectId) onlyOwner {\n        projects[_projectId].isActive = !projects[_projectId].isActive;\n        \n        emit ProjectStatusChanged(_projectId, projects[_projectId].isActive);\n    }\n    \n    /**\n     * @dev \n     */\n    function getDonationCount(uint256 _projectId) public view projectExists(_projectId) returns (uint256) {\n        return donations[_projectId].length;\n    }\n    \n    /**\n     * @dev \n     */\n    function getExpenseCount(uint256 _projectId) public view projectExists(_projectId) returns (uint256) {\n        return expenses[_projectId].length;\n    }\n    \n    /**\n     * @dev \n     */\n    function getAvailableBalance(uint256 _projectId) public view projectExists(_projectId) returns (uint256) {\n        return projects[_projectId].totalDonated - withdrawnAmounts[_projectId];\n    }\n    \n    /**\n     * @dev \n     */\n    function getWithdrawnAmount(uint256 _projectId) public view projectExists(_projectId) returns (uint256) {\n        return withdrawnAmounts[_projectId];\n    }\n    \n    /**\n     * @dev \n     */\n    function getContractBalance() public view returns (uint256) {\n        return address(this).balance;\n    }\n} ",
  "sourcePath": "/Users/kooooojun/Dev/Amplifier/contracts/CharityDonation.sol",
  "compiler": {
    "name": "solc",
    "version": "0.8.19+commit.7dd6d404.Emscripten.clang"
  },
  "schemaVersion": "3.4.16",
  "updatedAt": "2025-06-04T17:39:38.990Z",
  "networkType": "ethereum",
  "devdoc": {
    "details": "",
    "kind": "dev",
    "methods": {
      "createProject(string,string,address,uint256)": {
        "details": ""
      },
      "donate(uint256,string)": {
        "details": ""
      },
      "getAvailableBalance(uint256)": {
        "details": ""
      },
      "getContractBalance()": {
        "details": ""
      },
      "getDonationCount(uint256)": {
        "details": ""
      },
      "getExpenseCount(uint256)": {
        "details": ""
      },
      "getWithdrawnAmount(uint256)": {
        "details": ""
      },
      "recordExpense(uint256,string,uint256,address)": {
        "details": ""
      },
      "toggleProjectStatus(uint256)": {
        "details": "/"
      },
      "withdrawFunds(uint256,uint256)": {
        "details": ""
      }
    },
    "title": "CharityDonation",
    "version": 1
  },
  "userdoc": {
    "kind": "user",
    "methods": {},
    "version": 1
  }
}