{
  "contractName": "CharityDonation",
  "abi": [
    {
      "inputs": [],
      "stateMutability": "nonpayable",
      "type": "constructor"
    },
    {
      "anonymous": false,
      "inputs": [
        {
          "indexed": true,
          "internalType": "uint256",
          "name": "projectId",
          "type": "uint256"
        },
        {
          "indexed": true,
          "internalType": "address",
          "name": "donor",
          "type": "address"
        },
        {
          "indexed": false,
          "internalType": "uint256",
          "name": "amount",
          "type": "uint256"
        },
        {
          "indexed": false,
          "internalType": "string",
          "name": "message",
          "type": "string"
        }
      ],
      "name": "DonationReceived",
      "type": "event"
    },
    {
      "anonymous": false,
      "inputs": [
        {
          "indexed": true,
          "internalType": "uint256",
          "name": "projectId",
          "type": "uint256"
        },
        {
          "indexed": false,
          "internalType": "string",
          "name": "description",
          "type": "string"
        },
        {
          "indexed": false,
          "internalType": "uint256",
          "name": "amount",
          "type": "uint256"
        },
        {
          "indexed": false,
          "internalType": "address",
          "name": "recipient",
          "type": "address"
        }
      ],
      "name": "ExpenseRecorded",
      "type": "event"
    },
    {
      "anonymous": false,
      "inputs": [
        {
          "indexed": true,
          "internalType": "uint256",
          "name": "projectId",
          "type": "uint256"
        },
        {
          "indexed": true,
          "internalType": "address",
          "name": "beneficiary",
          "type": "address"
        },
        {
          "indexed": false,
          "internalType": "uint256",
          "name": "amount",
          "type": "uint256"
        }
      ],
      "name": "FundsWithdrawn",
      "type": "event"
    },
    {
      "anonymous": false,
      "inputs": [
        {
          "indexed": true,
          "internalType": "uint256",
          "name": "projectId",
          "type": "uint256"
        },
        {
          "indexed": false,
          "internalType": "string",
          "name": "name",
          "type": "string"
        },
        {
          "indexed": false,
          "internalType": "address",
          "name": "beneficiary",
          "type": "address"
        },
        {
          "indexed": false,
          "internalType": "uint256",
          "name": "goal",
          "type": "uint256"
        }
      ],
      "name": "ProjectCreated",
      "type": "event"
    },
    {
      "anonymous": false,
      "inputs": [
        {
          "indexed": true,
          "internalType": "uint256",
          "name": "projectId",
          "type": "uint256"
        },
        {
          "indexed": false,
          "internalType": "bool",
          "name": "isActive",
          "type": "bool"
        }
      ],
      "name": "ProjectStatusChanged",
      "type": "event"
    },
    {
      "inputs": [
        {
          "internalType": "uint256",
          "name": "",
          "type": "uint256"
        },
        {
          "internalType": "uint256",
          "name": "",
          "type": "uint256"
        }
      ],
      "name": "donations",
      "outputs": [
        {
          "internalType": "address",
          "name": "donor",
          "type": "address"
        },
        {
          "internalType": "uint256",
          "name": "amount",
          "type": "uint256"
        },
        {
          "internalType": "uint256",
          "name": "timestamp",
          "type": "uint256"
        },
        {
          "internalType": "string",
          "name": "message",
          "type": "string"
        }
      ],
      "stateMutability": "view",
      "type": "function",
      "constant": true
    },
    {
      "inputs": [
        {
          "internalType": "uint256",
          "name": "",
          "type": "uint256"
        },
        {
          "internalType": "uint256",
          "name": "",
          "type": "uint256"
        }
      ],
      "name": "expenses",
      "outputs": [
        {
          "internalType": "string",
          "name": "description",
          "type": "string"
        },
        {
          "internalType": "uint256",
          "name": "amount",
          "type": "uint256"
        },
        {
          "internalType": "uint256",
          "name": "timestamp",
          "type": "uint256"
        },
        {
          "internalType": "address",
          "name": "recipient",
          "type": "address"
        }
      ],
      "stateMutability": "view",
      "type": "function",
      "constant": true
    },
    {
      "inputs": [],
      "name": "owner",
      "outputs": [
        {
          "internalType": "address",
          "name": "",
          "type": "address"
        }
      ],
      "stateMutability": "view",
      "type": "function",
      "constant": true
    },
    {
      "inputs": [],
      "name": "projectCount",
      "outputs": [
        {
          "internalType": "uint256",
          "name": "",
          "type": "uint256"
        }
      ],
      "stateMutability": "view",
      "type": "function",
      "constant": true
    },
    {
      "inputs": [
        {
          "internalType": "uint256",
          "name": "",
          "type": "uint256"
        }
      ],
      "name": "projects",
      "outputs": [
        {
          "internalType": "string",
          "name": "name",
          "type": "string"
        },
        {
          "internalType": "string",
          "name": "description",
          "type": "string"
        },
        {
          "internalType": "address payable",
          "name": "beneficiary",
          "type": "address"
        },
        {
          "internalType": "uint256",
          "name": "fundraisingGoal",
          "type": "uint256"
        },
        {
          "internalType": "uint256",
          "name": "totalDonated",
          "type": "uint256"
        },
        {
          "internalType": "bool",
          "name": "isActive",
          "type": "bool"
        },
        {
          "internalType": "uint256",
          "name": "createdAt",
          "type": "uint256"
        }
      ],
      "stateMutability": "view",
      "type": "function",
      "constant": true
    },
    {
      "inputs": [
        {
          "internalType": "string",
          "name": "_name",
          "type": "string"
        },
        {
          "internalType": "string",
          "name": "_description",
          "type": "string"
        },
        {
          "internalType": "address payable",
          "name": "_beneficiary",
          "type": "address"
        },
        {
          "internalType": "uint256",
          "name": "_fundraisingGoal",
          "type": "uint256"
        }
      ],
      "name": "createProject",
      "outputs": [],
      "stateMutability": "nonpayable",
      "type": "function"
    },
    {
      "inputs": [
        {
          "internalType": "uint256",
          "name": "_projectId",
          "type": "uint256"
        },
        {
          "internalType": "string",
          "name": "_message",
          "type": "string"
        }
      ],
      "name": "donate",
      "outputs": [],
      "stateMutability": "payable",
      "type": "function",
      "payable": true
    },
    {
      "inputs": [
        {
          "internalType": "uint256",
          "name": "_projectId",
          "type": "uint256"
        },
        {
          "internalType": "uint256",
          "name": "_amount",
          "type": "uint256"
        }
      ],
      "name": "withdrawFunds",
      "outputs": [],
      "stateMutability": "nonpayable",
      "type": "function"
    },
    {
      "inputs": [
        {
          "internalType": "uint256",
          "name": "_projectId",
          "type": "uint256"
        },
        {
          "internalType": "string",
          "name": "_description",
          "type": "string"
        },
        {
          "internalType": "uint256",
          "name": "_amount",
          "type": "uint256"
        },
        {
          "internalType": "address",
          "name": "_recipient",
          "type": "address"
        }
      ],
      "name": "recordExpense",
      "outputs": [],
      "stateMutability": "nonpayable",
      "type": "function"
    },
    {
      "inputs": [
        {
          "internalType": "uint256",
          "name": "_projectId",
          "type": "uint256"
        }
      ],
      "name": "toggleProjectStatus",
      "outputs": [],
      "stateMutability": "nonpayable",
      "type": "function"
    },
    {
      "inputs": [
        {
          "internalType": "uint256",
          "name": "_projectId",
          "type": "uint256"
        }
      ],
      "name": "getDonationCount",
      "outputs": [
        {
          "internalType": "uint256",
          "name": "",
          "type": "uint256"
        }
      ],
      "stateMutability": "view",
      "type": "function",
      "constant": true
    },
    {
      "inputs": [
        {
          "internalType": "uint256",
          "name": "_projectId",
          "type": "uint256"
        }
      ],
      "name": "getExpenseCount",
      "outputs": [
        {
          "internalType": "uint256",
          "name": "",
          "type": "uint256"
        }
      ],
      "stateMutability": "view",
      "type": "function",
      "constant": true
    },
    {
      "inputs": [],
      "name": "getContractBalance",
      "outputs": [
        {
          "internalType": "uint256",
          "name": "",
          "type": "uint256"
        }
      ],
      "stateMutability": "view",
      "type": "function",
      "constant": true
    }
  ],
  "bytecode": "0x608060405234801561001057600080fd5b50336000806101000a81548173ffffffffffffffffffffffffffffffffffffffff021916908373ffffffffffffffffffffffffffffffffffffffff160217905550600060048190555061214d806100686000396000f3fe6080604052600436106100c25760003560e01c80638b8a417e1161007f578063bac3833911610059578063bac3833914610276578063c18c18761461029f578063d8decffe146102dc578063e52531051461031c576100c2565b80638b8a417e146102065780638d59d1f11461022f5780638da5cb5b1461024b576100c2565b8063107046bd146100c757806336fbad261461010a57806348f7b12e146101355780636eb8b37c146101755780636f9fb98a146101b257806372a1debe146101dd575b600080fd5b3480156100d357600080fd5b506100ee60048036038101906100e9919061129b565b610345565b60405161010197969594939291906113c3565b60405180910390f35b34801561011657600080fd5b5061011f6104c4565b60405161012c9190611440565b60405180910390f35b34801561014157600080fd5b5061015c6004803603810190610157919061145b565b6104ca565b60405161016c94939291906114bc565b60405180910390f35b34801561018157600080fd5b5061019c6004803603810190610197919061129b565b6105bf565b6040516101a99190611440565b60405180910390f35b3480156101be57600080fd5b506101c7610625565b6040516101d49190611440565b60405180910390f35b3480156101e957600080fd5b5061020460048036038101906101ff9190611669565b61062d565b005b34801561021257600080fd5b5061022d6004803603810190610228919061129b565b610841565b005b610249600480360381019061024491906116ec565b6109c5565b005b34801561025757600080fd5b50610260610c1b565b60405161026d9190611748565b60405180910390f35b34801561028257600080fd5b5061029d6004803603810190610298919061178f565b610c3f565b005b3480156102ab57600080fd5b506102c660048036038101906102c1919061129b565b610e43565b6040516102d39190611440565b60405180910390f35b3480156102e857600080fd5b5061030360048036038101906102fe919061145b565b610ea9565b604051610313949392919061182e565b60405180910390f35b34801561032857600080fd5b50610343600480360381019061033e919061145b565b610f9e565b005b6001602052806000526040600020600091509050806000018054610368906118a9565b80601f0160208091040260200160405190810160405280929190818152602001828054610394906118a9565b80156103e15780601f106103b6576101008083540402835291602001916103e1565b820191906000526020600020905b8154815290600101906020018083116103c457829003601f168201915b5050505050908060010180546103f6906118a9565b80601f0160208091040260200160405190810160405280929190818152602001828054610422906118a9565b801561046f5780601f106104445761010080835404028352916020019161046f565b820191906000526020600020905b81548152906001019060200180831161045257829003601f168201915b5050505050908060020160009054906101000a900473ffffffffffffffffffffffffffffffffffffffff16908060030154908060040154908060050160009054906101000a900460ff16908060060154905087565b60045481565b600260205281600052604060002081815481106104e657600080fd5b9060005260206000209060040201600091509150508060000160009054906101000a900473ffffffffffffffffffffffffffffffffffffffff169080600101549080600201549080600301805461053c906118a9565b80601f0160208091040260200160405190810160405280929190818152602001828054610568906118a9565b80156105b55780601f1061058a576101008083540402835291602001916105b5565b820191906000526020600020905b81548152906001019060200180831161059857829003601f168201915b5050505050905084565b6000816004548110610606576040517f08c379a00000000000000000000000000000000000000000000000000000000081526004016105fd90611926565b60405180910390fd5b6002600084815260200190815260200160002080549050915050919050565b600047905090565b836004548110610672576040517f08c379a000000000000000000000000000000000000000000000000000000000815260040161066990611926565b60405180910390fd5b846001600082815260200190815260200160002060020160009054906101000a900473ffffffffffffffffffffffffffffffffffffffff1673ffffffffffffffffffffffffffffffffffffffff163373ffffffffffffffffffffffffffffffffffffffff1614610717576040517f08c379a000000000000000000000000000000000000000000000000000000000815260040161070e906119b8565b60405180910390fd5b6003600087815260200190815260200160002060405180608001604052808781526020018681526020014281526020018573ffffffffffffffffffffffffffffffffffffffff168152509080600181540180825580915050600190039060005260206000209060040201600090919091909150600082015181600001908161079f9190611b84565b50602082015181600101556040820151816002015560608201518160030160006101000a81548173ffffffffffffffffffffffffffffffffffffffff021916908373ffffffffffffffffffffffffffffffffffffffff1602179055505050857f4953ad02d75c71c806db91df62522b28afce83f2a4f7996c0f009b37de66fed786868660405161083193929190611c56565b60405180910390a2505050505050565b806004548110610886576040517f08c379a000000000000000000000000000000000000000000000000000000000815260040161087d90611926565b60405180910390fd5b60008054906101000a900473ffffffffffffffffffffffffffffffffffffffff1673ffffffffffffffffffffffffffffffffffffffff163373ffffffffffffffffffffffffffffffffffffffff1614610914576040517f08c379a000000000000000000000000000000000000000000000000000000000815260040161090b90611d06565b60405180910390fd5b6001600083815260200190815260200160002060050160009054906101000a900460ff16156001600084815260200190815260200160002060050160006101000a81548160ff021916908315150217905550817f73c9860341fcf3a75820bf92ceafc9c352f5590f6693cd99123378b454372b7d6001600085815260200190815260200160002060050160009054906101000a900460ff166040516109b99190611d26565b60405180910390a25050565b816004548110610a0a576040517f08c379a0000000000000000000000000000000000000000000000000000000008152600401610a0190611926565b60405180910390fd5b826001600082815260200190815260200160002060050160009054906101000a900460ff16610a6e576040517f08c379a0000000000000000000000000000000000000000000000000000000008152600401610a6590611d8d565b60405180910390fd5b60003411610ab1576040517f08c379a0000000000000000000000000000000000000000000000000000000008152600401610aa890611e1f565b60405180910390fd5b34600160008681526020019081526020016000206004016000828254610ad79190611e6e565b925050819055506002600085815260200190815260200160002060405180608001604052803373ffffffffffffffffffffffffffffffffffffffff16815260200134815260200142815260200185815250908060018154018082558091505060019003906000526020600020906004020160009091909190915060008201518160000160006101000a81548173ffffffffffffffffffffffffffffffffffffffff021916908373ffffffffffffffffffffffffffffffffffffffff16021790555060208201518160010155604082015181600201556060820151816003019081610bc19190611b84565b5050503373ffffffffffffffffffffffffffffffffffffffff16847f3f82cd807839db80f9937063f26a2146e11e161b89613f94f6972cae64ea2e643486604051610c0d929190611ea2565b60405180910390a350505050565b60008054906101000a900473ffffffffffffffffffffffffffffffffffffffff1681565b60008054906101000a900473ffffffffffffffffffffffffffffffffffffffff1673ffffffffffffffffffffffffffffffffffffffff163373ffffffffffffffffffffffffffffffffffffffff1614610ccd576040517f08c379a0000000000000000000000000000000000000000000000000000000008152600401610cc490611d06565b60405180910390fd5b600060045490506040518060e001604052808681526020018581526020018473ffffffffffffffffffffffffffffffffffffffff1681526020018381526020016000815260200160011515815260200142815250600160008381526020019081526020016000206000820151816000019081610d499190611b84565b506020820151816001019081610d5f9190611b84565b5060408201518160020160006101000a81548173ffffffffffffffffffffffffffffffffffffffff021916908373ffffffffffffffffffffffffffffffffffffffff160217905550606082015181600301556080820151816004015560a08201518160050160006101000a81548160ff02191690831515021790555060c0820151816006015590505060046000815480929190610dfb90611ed2565b9190505550807fa026ee65bff24e0219543a4cec2746ef952b145e2658ac5db36953d7044712a9868585604051610e3493929190611f6f565b60405180910390a25050505050565b6000816004548110610e8a576040517f08c379a0000000000000000000000000000000000000000000000000000000008152600401610e8190611926565b60405180910390fd5b6003600084815260200190815260200160002080549050915050919050565b60036020528160005260406000208181548110610ec557600080fd5b906000526020600020906004020160009150915050806000018054610ee9906118a9565b80601f0160208091040260200160405190810160405280929190818152602001828054610f15906118a9565b8015610f625780601f10610f3757610100808354040283529160200191610f62565b820191906000526020600020905b815481529060010190602001808311610f4557829003601f168201915b5050505050908060010154908060020154908060030160009054906101000a900473ffffffffffffffffffffffffffffffffffffffff16905084565b816004548110610fe3576040517f08c379a0000000000000000000000000000000000000000000000000000000008152600401610fda90611926565b60405180910390fd5b826001600082815260200190815260200160002060020160009054906101000a900473ffffffffffffffffffffffffffffffffffffffff1673ffffffffffffffffffffffffffffffffffffffff163373ffffffffffffffffffffffffffffffffffffffff1614611088576040517f08c379a000000000000000000000000000000000000000000000000000000000815260040161107f906119b8565b60405180910390fd5b6000600160008681526020019081526020016000209050600084116110e2576040517f08c379a00000000000000000000000000000000000000000000000000000000081526004016110d99061201f565b60405180910390fd5b47841115611125576040517f08c379a000000000000000000000000000000000000000000000000000000000815260040161111c9061208b565b60405180910390fd5b806004015484111561116c576040517f08c379a0000000000000000000000000000000000000000000000000000000008152600401611163906120f7565b60405180910390fd5b8060020160009054906101000a900473ffffffffffffffffffffffffffffffffffffffff1673ffffffffffffffffffffffffffffffffffffffff166108fc859081150290604051600060405180830381858888f193505050501580156111d6573d6000803e3d6000fd5b508060020160009054906101000a900473ffffffffffffffffffffffffffffffffffffffff1673ffffffffffffffffffffffffffffffffffffffff16857ff440aec6b52895984d061d622e6edeba6210f7c3e059be920663140c084560d7866040516112429190611440565b60405180910390a35050505050565b6000604051905090565b600080fd5b600080fd5b6000819050919050565b61127881611265565b811461128357600080fd5b50565b6000813590506112958161126f565b92915050565b6000602082840312156112b1576112b061125b565b5b60006112bf84828501611286565b91505092915050565b600081519050919050565b600082825260208201905092915050565b60005b838110156113025780820151818401526020810190506112e7565b60008484015250505050565b6000601f19601f8301169050919050565b600061132a826112c8565b61133481856112d3565b93506113448185602086016112e4565b61134d8161130e565b840191505092915050565b600073ffffffffffffffffffffffffffffffffffffffff82169050919050565b600061138382611358565b9050919050565b61139381611378565b82525050565b6113a281611265565b82525050565b60008115159050919050565b6113bd816113a8565b82525050565b600060e08201905081810360008301526113dd818a61131f565b905081810360208301526113f1818961131f565b9050611400604083018861138a565b61140d6060830187611399565b61141a6080830186611399565b61142760a08301856113b4565b61143460c0830184611399565b98975050505050505050565b60006020820190506114556000830184611399565b92915050565b600080604083850312156114725761147161125b565b5b600061148085828601611286565b925050602061149185828601611286565b9150509250929050565b60006114a682611358565b9050919050565b6114b68161149b565b82525050565b60006080820190506114d160008301876114ad565b6114de6020830186611399565b6114eb6040830185611399565b81810360608301526114fd818461131f565b905095945050505050565b600080fd5b600080fd5b7f4e487b7100000000000000000000000000000000000000000000000000000000600052604160045260246000fd5b61154a8261130e565b810181811067ffffffffffffffff8211171561156957611568611512565b5b80604052505050565b600061157c611251565b90506115888282611541565b919050565b600067ffffffffffffffff8211156115a8576115a7611512565b5b6115b18261130e565b9050602081019050919050565b82818337600083830152505050565b60006115e06115db8461158d565b611572565b9050828152602081018484840111156115fc576115fb61150d565b5b6116078482856115be565b509392505050565b600082601f83011261162457611623611508565b5b81356116348482602086016115cd565b91505092915050565b6116468161149b565b811461165157600080fd5b50565b6000813590506116638161163d565b92915050565b600080600080608085870312156116835761168261125b565b5b600061169187828801611286565b945050602085013567ffffffffffffffff8111156116b2576116b1611260565b5b6116be8782880161160f565b93505060406116cf87828801611286565b92505060606116e087828801611654565b91505092959194509250565b600080604083850312156117035761170261125b565b5b600061171185828601611286565b925050602083013567ffffffffffffffff81111561173257611731611260565b5b61173e8582860161160f565b9150509250929050565b600060208201905061175d60008301846114ad565b92915050565b61176c81611378565b811461177757600080fd5b50565b60008135905061178981611763565b92915050565b600080600080608085870312156117a9576117a861125b565b5b600085013567ffffffffffffffff8111156117c7576117c6611260565b5b6117d38782880161160f565b945050602085013567ffffffffffffffff8111156117f4576117f3611260565b5b6118008782880161160f565b93505060406118118782880161177a565b925050606061182287828801611286565b91505092959194509250565b60006080820190508181036000830152611848818761131f565b90506118576020830186611399565b6118646040830185611399565b61187160608301846114ad565b95945050505050565b7f4e487b7100000000000000000000000000000000000000000000000000000000600052602260045260246000fd5b600060028204905060018216806118c157607f821691505b6020821081036118d4576118d361187a565b5b50919050565b7f50726f6a65637420646f6573206e6f7420657869737400000000000000000000600082015250565b60006119106016836112d3565b915061191b826118da565b602082019050919050565b6000602082019050818103600083015261193f81611903565b9050919050565b7f4f6e6c792070726f6a6563742062656e65666963696172792063616e2063616c60008201527f6c20746869732066756e6374696f6e0000000000000000000000000000000000602082015250565b60006119a2602f836112d3565b91506119ad82611946565b604082019050919050565b600060208201905081810360008301526119d181611995565b9050919050565b60008190508160005260206000209050919050565b60006020601f8301049050919050565b600082821b905092915050565b600060088302611a3a7fffffffffffffffffffffffffffffffffffffffffffffffffffffffffffffffff826119fd565b611a4486836119fd565b95508019841693508086168417925050509392505050565b6000819050919050565b6000611a81611a7c611a7784611265565b611a5c565b611265565b9050919050565b6000819050919050565b611a9b83611a66565b611aaf611aa782611a88565b848454611a0a565b825550505050565b600090565b611ac4611ab7565b611acf818484611a92565b505050565b5b81811015611af357611ae8600082611abc565b600181019050611ad5565b5050565b601f821115611b3857611b09816119d8565b611b12846119ed565b81016020851015611b21578190505b611b35611b2d856119ed565b830182611ad4565b50505b505050565b600082821c905092915050565b6000611b5b60001984600802611b3d565b1980831691505092915050565b6000611b748383611b4a565b9150826002028217905092915050565b611b8d826112c8565b67ffffffffffffffff811115611ba657611ba5611512565b5b611bb082546118a9565b611bbb828285611af7565b600060209050601f831160018114611bee5760008415611bdc578287015190505b611be68582611b68565b865550611c4e565b601f198416611bfc866119d8565b60005b82811015611c2457848901518255600182019150602085019450602081019050611bff565b86831015611c415784890151611c3d601f891682611b4a565b8355505b6001600288020188555050505b505050505050565b60006060820190508181036000830152611c70818661131f565b9050611c7f6020830185611399565b611c8c60408301846114ad565b949350505050565b7f4f6e6c7920636f6e7472616374206f776e65722063616e2063616c6c2074686960008201527f732066756e6374696f6e00000000000000000000000000000000000000000000602082015250565b6000611cf0602a836112d3565b9150611cfb82611c94565b604082019050919050565b60006020820190508181036000830152611d1f81611ce3565b9050919050565b6000602082019050611d3b60008301846113b4565b92915050565b7f50726f6a656374206973206e6f74206163746976650000000000000000000000600082015250565b6000611d776015836112d3565b9150611d8282611d41565b602082019050919050565b60006020820190508181036000830152611da681611d6a565b9050919050565b7f446f6e6174696f6e20616d6f756e74206d75737420626520677265617465722060008201527f7468616e20300000000000000000000000000000000000000000000000000000602082015250565b6000611e096026836112d3565b9150611e1482611dad565b604082019050919050565b60006020820190508181036000830152611e3881611dfc565b9050919050565b7f4e487b7100000000000000000000000000000000000000000000000000000000600052601160045260246000fd5b6000611e7982611265565b9150611e8483611265565b9250828201905080821115611e9c57611e9b611e3f565b5b92915050565b6000604082019050611eb76000830185611399565b8181036020830152611ec9818461131f565b90509392505050565b6000611edd82611265565b91507fffffffffffffffffffffffffffffffffffffffffffffffffffffffffffffffff8203611f0f57611f0e611e3f565b5b600182019050919050565b6000611f35611f30611f2b84611358565b611a5c565b611358565b9050919050565b6000611f4782611f1a565b9050919050565b6000611f5982611f3c565b9050919050565b611f6981611f4e565b82525050565b60006060820190508181036000830152611f89818661131f565b9050611f986020830185611f60565b611fa56040830184611399565b949350505050565b7f5769746864726177616c20616d6f756e74206d7573742062652067726561746560008201527f72207468616e2030000000000000000000000000000000000000000000000000602082015250565b60006120096028836112d3565b915061201482611fad565b604082019050919050565b6000602082019050818103600083015261203881611ffc565b9050919050565b7f496e73756666696369656e7420636f6e74726163742062616c616e6365000000600082015250565b6000612075601d836112d3565b91506120808261203f565b602082019050919050565b600060208201905081810360008301526120a481612068565b9050919050565b7f496e73756666696369656e742070726f6a6563742062616c616e636500000000600082015250565b60006120e1601c836112d3565b91506120ec826120ab565b602082019050919050565b60006020820190508181036000830152612110816120d4565b905091905056fea2646970667358221220ab5b12f5f8a8d48015068ae9bcbb131dcda56110749ae85c5ca953bf1d37fa3f64736f6c63430008130033",
  "immutableReferences": {},
  "source": "// SPDX-License-Identifier: MIT\npragma solidity ^0.8.0;\n\n/**\n * @title CharityDonation\n * @dev \n */\ncontract CharityDonation {\n    // \n    address public owner;\n    \n    // \n    struct CharityProject {\n        string name;\n        string description;\n        address payable beneficiary;\n        uint256 fundraisingGoal;\n        uint256 totalDonated;\n        bool isActive;\n        uint256 createdAt;\n    }\n    \n    // \n    struct Donation {\n        address donor;\n        uint256 amount;\n        uint256 timestamp;\n        string message;\n    }\n    \n    // \n    struct Expense {\n        string description;\n        uint256 amount;\n        uint256 timestamp;\n        address recipient;\n    }\n    \n    // ID\n    mapping(uint256 => CharityProject) public projects;\n    \n    // ID\n    mapping(uint256 => Donation[]) public donations;\n    \n    // ID\n    mapping(uint256 => Expense[]) public expenses;\n    \n    // \n    uint256 public projectCount;\n    \n    // \n    event ProjectCreated(uint256 indexed projectId, string name, address beneficiary, uint256 goal);\n    event DonationReceived(uint256 indexed projectId, address indexed donor, uint256 amount, string message);\n    event FundsWithdrawn(uint256 indexed projectId, address indexed beneficiary, uint256 amount);\n    event ExpenseRecorded(uint256 indexed projectId, string description, uint256 amount, address recipient);\n    event ProjectStatusChanged(uint256 indexed projectId, bool isActive);\n    \n    // \n    constructor() {\n        owner = msg.sender;\n        projectCount = 0;\n    }\n    \n    // \n    modifier onlyOwner() {\n        require(msg.sender == owner, \"Only contract owner can call this function\");\n        _;\n    }\n    \n    // \n    modifier onlyBeneficiary(uint256 _projectId) {\n        require(msg.sender == projects[_projectId].beneficiary, \"Only project beneficiary can call this function\");\n        _;\n    }\n    \n    // \n    modifier projectExists(uint256 _projectId) {\n        require(_projectId < projectCount, \"Project does not exist\");\n        _;\n    }\n    \n    // \n    modifier projectActive(uint256 _projectId) {\n        require(projects[_projectId].isActive, \"Project is not active\");\n        _;\n    }\n    \n    /**\n     * @dev \n     */\n    function createProject(\n        string memory _name,\n        string memory _description,\n        address payable _beneficiary,\n        uint256 _fundraisingGoal\n    ) public onlyOwner {\n        uint256 projectId = projectCount;\n        \n        projects[projectId] = CharityProject({\n            name: _name,\n            description: _description,\n            beneficiary: _beneficiary,\n            fundraisingGoal: _fundraisingGoal,\n            totalDonated: 0,\n            isActive: true,\n            createdAt: block.timestamp\n        });\n        \n        projectCount++;\n        \n        emit ProjectCreated(projectId, _name, _beneficiary, _fundraisingGoal);\n    }\n    \n    /**\n     * @dev \n     */\n    function donate(uint256 _projectId, string memory _message) public payable projectExists(_projectId) projectActive(_projectId) {\n        require(msg.value > 0, \"Donation amount must be greater than 0\");\n        \n        // \n        projects[_projectId].totalDonated += msg.value;\n        \n        // \n        donations[_projectId].push(Donation({\n            donor: msg.sender,\n            amount: msg.value,\n            timestamp: block.timestamp,\n            message: _message\n        }));\n        \n        emit DonationReceived(_projectId, msg.sender, msg.value, _message);\n    }\n    \n    /**\n     * @dev \n     */\n    function withdrawFunds(uint256 _projectId, uint256 _amount) public projectExists(_projectId) onlyBeneficiary(_projectId) {\n        CharityProject storage project = projects[_projectId];\n        \n        require(_amount > 0, \"Withdrawal amount must be greater than 0\");\n        require(_amount <= address(this).balance, \"Insufficient contract balance\");\n        require(_amount <= project.totalDonated, \"Insufficient project balance\");\n        \n        // \n        project.beneficiary.transfer(_amount);\n        \n        emit FundsWithdrawn(_projectId, project.beneficiary, _amount);\n    }\n    \n    /**\n     * @dev \n     */\n    function recordExpense(\n        uint256 _projectId,\n        string memory _description,\n        uint256 _amount,\n        address _recipient\n    ) public projectExists(_projectId) onlyBeneficiary(_projectId) {\n        expenses[_projectId].push(Expense({\n            description: _description,\n            amount: _amount,\n            timestamp: block.timestamp,\n            recipient: _recipient\n        }));\n        \n        emit ExpenseRecorded(_projectId, _description, _amount, _recipient);\n    }\n    \n    /**\n     * @dev /\n     */\n    function toggleProjectStatus(uint256 _projectId) public projectExists(_projectId) onlyOwner {\n        projects[_projectId].isActive = !projects[_projectId].isActive;\n        \n        emit ProjectStatusChanged(_projectId, projects[_projectId].isActive);\n    }\n    \n    /**\n     * @dev \n     */\n    function getDonationCount(uint256 _projectId) public view projectExists(_projectId) returns (uint256) {\n        return donations[_projectId].length;\n    }\n    \n    /**\n     * @dev \n     */\n    function getExpenseCount(uint256 _projectId) public view projectExists(_projectId) returns (uint256) {\n        return expenses[_projectId].length;\n    }\n    \n    /**\n     * @dev \n     */\n    function getContractBalance() public view returns (uint256) {\n        return address(this).balance;\n    }\n} ",
  "sourcePath": "/Users/kooooojun/Dev/Amplifier/contracts/CharityDonation.sol",
  "compiler": {
    "name": "solc",
    "version": "0.8.19+commit.7dd6d404.Emscripten.clang"
  },
  "schemaVersion": "3.4.16",
  "updatedAt": "2025-06-01T20:00:31.314Z",
  "networkType": "ethereum",
  "devdoc": {
    "details": "",
    "kind": "dev",
    "methods": {
      "createProject(string,string,address,uint256)": {
        "details": ""
      },
      "donate(uint256,string)": {
        "details": ""
      },
      "getContractBalance()": {
        "details": ""
      },
      "getDonationCount(uint256)": {
        "details": ""
      },
      "getExpenseCount(uint256)": {
        "details": ""
      },
      "recordExpense(uint256,string,uint256,address)": {
        "details": ""
      },
      "toggleProjectStatus(uint256)": {
        "details": "/"
      },
      "withdrawFunds(uint256,uint256)": {
        "details": ""
      }
    },
    "title": "CharityDonation",
    "version": 1
  },
  "userdoc": {
    "kind": "user",
    "methods": {},
    "version": 1
  }
}